{
  "contractName": "Wallet",
  "abi": [
    {
      "inputs": [],
      "stateMutability": "nonpayable",
      "type": "constructor"
    },
    {
      "anonymous": false,
      "inputs": [
        {
          "indexed": true,
          "internalType": "address",
          "name": "_from",
          "type": "address"
        },
        {
          "indexed": true,
          "internalType": "address",
          "name": "_to",
          "type": "address"
        },
        {
          "indexed": false,
          "internalType": "uint256",
          "name": "_value",
          "type": "uint256"
        }
      ],
      "name": "Transfer",
      "type": "event"
    },
    {
      "stateMutability": "payable",
      "type": "fallback",
      "payable": true
    },
    {
      "inputs": [],
      "name": "data",
      "outputs": [
        {
          "internalType": "uint256",
          "name": "",
          "type": "uint256"
        }
      ],
      "stateMutability": "view",
      "type": "function",
      "constant": true
    },
    {
      "inputs": [],
      "name": "getContractBalance",
      "outputs": [
        {
          "internalType": "uint256",
          "name": "",
          "type": "uint256"
        }
      ],
      "stateMutability": "view",
      "type": "function",
      "constant": true
    },
    {
      "inputs": [
        {
          "internalType": "uint256",
          "name": "x",
          "type": "uint256"
        }
      ],
      "name": "setContractBalance",
      "outputs": [],
      "stateMutability": "nonpayable",
      "type": "function"
    },
    {
      "inputs": [
        {
          "internalType": "uint256",
          "name": "x",
          "type": "uint256"
        }
      ],
      "name": "incrementContractBalance",
      "outputs": [],
      "stateMutability": "nonpayable",
      "type": "function"
    },
    {
      "inputs": [
        {
          "internalType": "uint256",
          "name": "amount",
          "type": "uint256"
        }
      ],
      "name": "save",
      "outputs": [],
      "stateMutability": "nonpayable",
      "type": "function"
    },
    {
      "inputs": [
        {
          "internalType": "uint256",
          "name": "amount",
          "type": "uint256"
        },
        {
          "internalType": "address",
          "name": "recipient",
          "type": "address"
        }
      ],
      "name": "spend",
      "outputs": [],
      "stateMutability": "nonpayable",
      "type": "function"
    },
    {
      "inputs": [],
      "name": "balanceOfDai",
      "outputs": [
        {
          "internalType": "uint256",
          "name": "",
          "type": "uint256"
        }
      ],
      "stateMutability": "view",
      "type": "function",
      "constant": true
    },
    {
      "inputs": [
        {
          "internalType": "address",
          "name": "receiver",
          "type": "address"
        },
        {
          "internalType": "uint256",
          "name": "amount",
          "type": "uint256"
        }
      ],
      "name": "sendCoin",
      "outputs": [
        {
          "internalType": "bool",
          "name": "sufficient",
          "type": "bool"
        }
      ],
      "stateMutability": "nonpayable",
      "type": "function"
    },
    {
      "inputs": [
        {
          "internalType": "address",
          "name": "addr",
          "type": "address"
        }
      ],
      "name": "getBalance",
      "outputs": [
        {
          "internalType": "uint256",
          "name": "",
          "type": "uint256"
        }
      ],
      "stateMutability": "view",
      "type": "function",
      "constant": true
    },
    {
      "inputs": [
        {
          "internalType": "uint256",
          "name": "amount",
          "type": "uint256"
        }
      ],
      "name": "payMe",
      "outputs": [
        {
          "internalType": "bool",
          "name": "success",
          "type": "bool"
        }
      ],
      "stateMutability": "payable",
      "type": "function",
      "payable": true
    }
  ],
  "bytecode": "0x6080604052736b175474e89094c44da98b954eedeac495271d0f600160006101000a81548173ffffffffffffffffffffffffffffffffffffffff021916908373ffffffffffffffffffffffffffffffffffffffff16021790555073c2cb1040220768554cf699b0d863a3cd4324ce32600260006101000a81548173ffffffffffffffffffffffffffffffffffffffff021916908373ffffffffffffffffffffffffffffffffffffffff16021790555060096003553480156100bf57600080fd5b50336000806101000a81548173ffffffffffffffffffffffffffffffffffffffff021916908373ffffffffffffffffffffffffffffffffffffffff160217905550612710600560003273ffffffffffffffffffffffffffffffffffffffff1673ffffffffffffffffffffffffffffffffffffffff16815260200190815260200160002081905550610dc2806101556000396000f3fe6080604052600436106100955760003560e01c806373d4a13a1161005957806373d4a13a1461020657806390b98a1114610231578063c9f8dc19146102a4578063f8b2cb4f146102df578063fcc3a4851461034457610096565b80631b862027146100df5780631e9f59db1461011a5780633210520e146101755780635d969ee4146101b05780636f9fb98a146101db57610096565b5b3373ffffffffffffffffffffffffffffffffffffffff166108fc349081150290604051600060405180830381858888f193505050501580156100dc573d6000803e3d6000fd5b50005b3480156100eb57600080fd5b506101186004803603602081101561010257600080fd5b810190808035906020019092919050505061038a565b005b34801561012657600080fd5b506101736004803603604081101561013d57600080fd5b8101908080359060200190929190803573ffffffffffffffffffffffffffffffffffffffff1690602001909291905050506104af565b005b34801561018157600080fd5b506101ae6004803603602081101561019857600080fd5b81019080803590602001909291905050506108b8565b005b3480156101bc57600080fd5b506101c56108c2565b6040518082815260200191505060405180910390f35b3480156101e757600080fd5b506101f0610a52565b6040518082815260200191505060405180910390f35b34801561021257600080fd5b5061021b610a5c565b6040518082815260200191505060405180910390f35b34801561023d57600080fd5b5061028a6004803603604081101561025457600080fd5b81019080803573ffffffffffffffffffffffffffffffffffffffff16906020019092919080359060200190929190505050610a62565b604051808215151515815260200191505060405180910390f35b3480156102b057600080fd5b506102dd600480360360208110156102c757600080fd5b8101908080359060200190929190505050610bbe565b005b3480156102eb57600080fd5b5061032e6004803603602081101561030257600080fd5b81019080803573ffffffffffffffffffffffffffffffffffffffff169060200190929190505050610bc8565b6040518082815260200191505060405180910390f35b6103706004803603602081101561035a57600080fd5b8101908080359060200190929190505050610bda565b604051808215151515815260200191505060405180910390f35b600160009054906101000a900473ffffffffffffffffffffffffffffffffffffffff1673ffffffffffffffffffffffffffffffffffffffff166323b872dd3330846040518463ffffffff1660e01b8152600401808473ffffffffffffffffffffffffffffffffffffffff1673ffffffffffffffffffffffffffffffffffffffff1681526020018373ffffffffffffffffffffffffffffffffffffffff1673ffffffffffffffffffffffffffffffffffffffff1681526020018281526020019350505050602060405180830381600087803b15801561046757600080fd5b505af115801561047b573d6000803e3d6000fd5b505050506040513d602081101561049157600080fd5b8101908080519060200190929190505050506104ac81610bf5565b50565b6000809054906101000a900473ffffffffffffffffffffffffffffffffffffffff1673ffffffffffffffffffffffffffffffffffffffff163373ffffffffffffffffffffffffffffffffffffffff1614610571576040517f08c379a000000000000000000000000000000000000000000000000000000000815260040180806020018281038252600a8152602001807f6f6e6c792061646d696e0000000000000000000000000000000000000000000081525060200191505060405180910390fd5b6000600260009054906101000a900473ffffffffffffffffffffffffffffffffffffffff1673ffffffffffffffffffffffffffffffffffffffff166370a08231306040518263ffffffff1660e01b8152600401808273ffffffffffffffffffffffffffffffffffffffff1673ffffffffffffffffffffffffffffffffffffffff16815260200191505060206040518083038186803b15801561061257600080fd5b505afa158015610626573d6000803e3d6000fd5b505050506040513d602081101561063c57600080fd5b81019080805190602001909291905050509050600260009054906101000a900473ffffffffffffffffffffffffffffffffffffffff1673ffffffffffffffffffffffffffffffffffffffff16632e1a7d4d826040518263ffffffff1660e01b815260040180828152602001915050600060405180830381600087803b1580156106c457600080fd5b505af11580156106d8573d6000803e3d6000fd5b50505050600160009054906101000a900473ffffffffffffffffffffffffffffffffffffffff1673ffffffffffffffffffffffffffffffffffffffff1663a9059cbb83856040518363ffffffff1660e01b8152600401808373ffffffffffffffffffffffffffffffffffffffff1673ffffffffffffffffffffffffffffffffffffffff16815260200182815260200192505050602060405180830381600087803b15801561078557600080fd5b505af1158015610799573d6000803e3d6000fd5b505050506040513d60208110156107af57600080fd5b8101908080519060200190929190505050506000600160009054906101000a900473ffffffffffffffffffffffffffffffffffffffff1673ffffffffffffffffffffffffffffffffffffffff166370a08231306040518263ffffffff1660e01b8152600401808273ffffffffffffffffffffffffffffffffffffffff1673ffffffffffffffffffffffffffffffffffffffff16815260200191505060206040518083038186803b15801561086257600080fd5b505afa158015610876573d6000803e3d6000fd5b505050506040513d602081101561088c57600080fd5b8101908080519060200190929190505050905060008111156108b2576108b181610bf5565b5b50505050565b8060048190555050565b600080600260009054906101000a900473ffffffffffffffffffffffffffffffffffffffff1673ffffffffffffffffffffffffffffffffffffffff166377c7b8fc6040518163ffffffff1660e01b815260040160206040518083038186803b15801561092d57600080fd5b505afa158015610941573d6000803e3d6000fd5b505050506040513d602081101561095757600080fd5b810190808051906020019092919050505090506000600260009054906101000a900473ffffffffffffffffffffffffffffffffffffffff1673ffffffffffffffffffffffffffffffffffffffff166370a08231306040518263ffffffff1660e01b8152600401808273ffffffffffffffffffffffffffffffffffffffff1673ffffffffffffffffffffffffffffffffffffffff16815260200191505060206040518083038186803b158015610a0b57600080fd5b505afa158015610a1f573d6000803e3d6000fd5b505050506040513d6020811015610a3557600080fd5b810190808051906020019092919050505090508181029250505090565b6000600454905090565b60035481565b600081600560003373ffffffffffffffffffffffffffffffffffffffff1673ffffffffffffffffffffffffffffffffffffffff168152602001908152602001600020541015610ab45760009050610bb8565b81600560003373ffffffffffffffffffffffffffffffffffffffff1673ffffffffffffffffffffffffffffffffffffffff1681526020019081526020016000206000828254039250508190555081600560008573ffffffffffffffffffffffffffffffffffffffff1673ffffffffffffffffffffffffffffffffffffffff168152602001908152602001600020600082825401925050819055508273ffffffffffffffffffffffffffffffffffffffff163373ffffffffffffffffffffffffffffffffffffffff167fddf252ad1be2c89b69c2b068fc378daa952ba7f163c4a11628f55a4df523b3ef846040518082815260200191505060405180910390a3600190505b92915050565b8060048190555050565b6000610bd382610bc8565b9050919050565b60008160046000828254019250508190555060019050919050565b600160009054906101000a900473ffffffffffffffffffffffffffffffffffffffff1673ffffffffffffffffffffffffffffffffffffffff1663095ea7b3600260009054906101000a900473ffffffffffffffffffffffffffffffffffffffff16836040518363ffffffff1660e01b8152600401808373ffffffffffffffffffffffffffffffffffffffff1673ffffffffffffffffffffffffffffffffffffffff16815260200182815260200192505050602060405180830381600087803b158015610cc057600080fd5b505af1158015610cd4573d6000803e3d6000fd5b505050506040513d6020811015610cea57600080fd5b810190808051906020019092919050505050600260009054906101000a900473ffffffffffffffffffffffffffffffffffffffff1673ffffffffffffffffffffffffffffffffffffffff1663b6b55f25826040518263ffffffff1660e01b815260040180828152602001915050600060405180830381600087803b158015610d7157600080fd5b505af1158015610d85573d6000803e3d6000fd5b505050505056fea26469706673582212203a98994d50ff2ec39ed1e0150db30f8038a56dd46b44317ae40aa7595b5116b564736f6c63430006000033",
  "source": "pragma solidity  >=0.6.0 <0.9.0;\n\nimport '@openzeppelin/contracts/token/ERC20/IERC20.sol';\n//https://github.com/OpenZeppelin/openzeppelin-contracts/blob/master/contracts/token/ERC20/ERC20.sol;\n\ninterface IYDAI {\n  function deposit(uint _amount) external;\n  function withdraw(uint _shares) external;\n  function balanceOf(address account) external view returns(uint);\n  function getPricePerFullShare() external view returns(uint);\n}\n\ncontract Wallet {\naddress admin;\n\n    IERC20 dai = IERC20(0x6B175474E89094C44Da98b954EedeAC495271d0F);        // from etherscan\n    IYDAI yDai = IYDAI(0xC2cB1040220768554cf699b0d863A3cd4324ce32);         // from yearn finance registry\n\n    uint public data = 9;\n    uint private balance;\n\n    mapping (address => uint) balances;\n    event Transfer(address indexed _from, address indexed _to, uint256 _value);\n\n    constructor() public {\n        admin = msg.sender;                 //address that deployed the contract\n        balances[tx.origin] = 10000;\n    }\n\n    fallback() external payable  {\n        // safety refund if sent to contract.\n        msg.sender.transfer(msg.value);\n        // solidity has access to this global object msg - message metadata available whenever you call a function\n    }\n\n    /* Extra Callables */\n    function getContractBalance() public view returns (uint) {\n        return balance;\n    }\n\n    function setContractBalance(uint x) public {\n        balance = x;\n    }\n\n    function incrementContractBalance(uint x) public {\n        balance = x;\n    }\n\n\n\n    function save(uint amount) external {\n        // No need for admin check here.\n        dai.transferFrom(msg.sender, address(this), amount);    // from sender to this wallet\n        _save(amount);\n    }\n\n    function _save(uint amount) internal {\n        dai.approve(address(yDai), amount);     //ERC20 function -> https://docs.openzeppelin.com/contracts/4.x/api/token/erc20#IERC20-approve-address-uint256-\n        yDai.deposit(amount);\n    }\n\n    function spend(uint amount, address recipient) external {\n        require(msg.sender == admin, 'only admin');\n        uint balanceShares = yDai.balanceOf(address(this));     //get the balance in yDAi\n        yDai.withdraw(balanceShares);                           //withdraw from Yearn\n        dai.transfer(recipient, amount);                        //recipient is us but can be anyone\n\n        uint balanceDai = dai.balanceOf(address(this));         //re-invest any extra balance\n        if (balanceDai > 0 ) {\n            _save(balanceDai);\n        }\n    }\n\n    // Renamed to avoid conflict with balance variable when calling\n    function balanceOfDai() public view returns(uint) {\n        uint price = yDai.getPricePerFullShare();\n        uint balanceShares = yDai.balanceOf(address(this));\n        return balanceShares * price;\n    }\n\n    function sendCoin(address receiver, uint amount) public returns(bool sufficient) {\n        if (balances[msg.sender] < amount) return false;\n        balances[msg.sender] -= amount;\n        balances[receiver] += amount;\n        emit Transfer(msg.sender, receiver, amount);\n        return true;\n    }\n\n    function getBalance(address addr) public view returns(uint){\n\t\treturn getBalance(addr);\n    }\n\n\n    /* Extra Callable */\n    function payMe(uint amount) payable public returns(bool success) {\n        balance += amount;\n        return true;\n    }\n\n}",
  "sourcePath": "/Users/thomasmoran/ROOT_FOLDER/Development_2018/Git_repositories/Ethereum/EthereumDevMeetup8/Wallet/contracts/Wallet.sol",
  "compiler": {
    "name": "solc",
    "version": "0.6.0+commit.26b70077.Emscripten.clang"
  },
  "schemaVersion": "3.2.5",
  "updatedAt": "2021-04-07T08:14:41.531Z",
  "networkType": "ethereum",
  "devdoc": {
    "methods": {}
  },
  "userdoc": {
    "methods": {}
  }
}